{
  "_format": "hh-sol-artifact-1",
  "contractName": "USElection",
  "sourceName": "contracts/USElection.sol",
  "abi": [
    {
      "anonymous": false,
      "inputs": [
        {
          "indexed": false,
          "internalType": "uint256",
          "name": "winner",
          "type": "uint256"
        }
      ],
      "name": "LogElectionEnded",
      "type": "event"
    },
    {
      "anonymous": false,
      "inputs": [
        {
          "indexed": true,
          "internalType": "uint8",
          "name": "winner",
          "type": "uint8"
        },
        {
          "indexed": true,
          "internalType": "uint8",
          "name": "stateSeats",
          "type": "uint8"
        },
        {
          "indexed": true,
          "internalType": "string",
          "name": "state",
          "type": "string"
        }
      ],
      "name": "LogStateResult",
      "type": "event"
    },
    {
      "anonymous": false,
      "inputs": [
        {
          "indexed": true,
          "internalType": "address",
          "name": "previousOwner",
          "type": "address"
        },
        {
          "indexed": true,
          "internalType": "address",
          "name": "newOwner",
          "type": "address"
        }
      ],
      "name": "OwnershipTransferred",
      "type": "event"
    },
    {
      "inputs": [],
      "name": "BIDEN",
      "outputs": [
        {
          "internalType": "uint8",
          "name": "",
          "type": "uint8"
        }
      ],
      "stateMutability": "view",
      "type": "function"
    },
    {
      "inputs": [],
      "name": "TRUMP",
      "outputs": [
        {
          "internalType": "uint8",
          "name": "",
          "type": "uint8"
        }
      ],
      "stateMutability": "view",
      "type": "function"
    },
    {
      "inputs": [],
      "name": "currentLeader",
      "outputs": [
        {
          "internalType": "uint8",
          "name": "",
          "type": "uint8"
        }
      ],
      "stateMutability": "view",
      "type": "function"
    },
    {
      "inputs": [],
      "name": "electionEnded",
      "outputs": [
        {
          "internalType": "bool",
          "name": "",
          "type": "bool"
        }
      ],
      "stateMutability": "view",
      "type": "function"
    },
    {
      "inputs": [],
      "name": "endElection",
      "outputs": [],
      "stateMutability": "nonpayable",
      "type": "function"
    },
    {
      "inputs": [],
      "name": "owner",
      "outputs": [
        {
          "internalType": "address",
          "name": "",
          "type": "address"
        }
      ],
      "stateMutability": "view",
      "type": "function"
    },
    {
      "inputs": [],
      "name": "renounceOwnership",
      "outputs": [],
      "stateMutability": "nonpayable",
      "type": "function"
    },
    {
      "inputs": [
        {
          "internalType": "string",
          "name": "",
          "type": "string"
        }
      ],
      "name": "resultsSubmitted",
      "outputs": [
        {
          "internalType": "bool",
          "name": "",
          "type": "bool"
        }
      ],
      "stateMutability": "view",
      "type": "function"
    },
    {
      "inputs": [
        {
          "internalType": "uint8",
          "name": "",
          "type": "uint8"
        }
      ],
      "name": "seats",
      "outputs": [
        {
          "internalType": "uint8",
          "name": "",
          "type": "uint8"
        }
      ],
      "stateMutability": "view",
      "type": "function"
    },
    {
      "inputs": [
        {
          "components": [
            {
              "internalType": "string",
              "name": "name",
              "type": "string"
            },
            {
              "internalType": "uint256",
              "name": "votesBiden",
              "type": "uint256"
            },
            {
              "internalType": "uint256",
              "name": "votesTrump",
              "type": "uint256"
            },
            {
              "internalType": "uint8",
              "name": "stateSeats",
              "type": "uint8"
            }
          ],
          "internalType": "struct USElection.StateResult",
          "name": "result",
          "type": "tuple"
        }
      ],
      "name": "submitStateResult",
      "outputs": [],
      "stateMutability": "nonpayable",
      "type": "function"
    },
    {
      "inputs": [
        {
          "internalType": "address",
          "name": "newOwner",
          "type": "address"
        }
      ],
      "name": "transferOwnership",
      "outputs": [],
      "stateMutability": "nonpayable",
      "type": "function"
    }
  ],
  "bytecode": "0x608060405234801561001057600080fd5b5061001a3361001f565b61006f565b600080546001600160a01b038381166001600160a01b0319831681178455604051919092169283917f8be0079c531659141344cd1fd0a4f28419497f9722a3daafe3b4186f6b6457e09190a35050565b61096b8061007e6000396000f3fe608060405234801561001057600080fd5b50600436106100a95760003560e01c8063715018a611610071578063715018a6146101405780638da5cb5b14610148578063ac4bd53a14610163578063c94ca9e31461016b578063e494a8831461017f578063f2fde38b1461019257600080fd5b80632d78d8e5146100ae57806337ad98ec146100cd57806359f784681461010b57806369b36bd414610115578063713d87c51461011d575b600080fd5b6100b6600281565b60405160ff90911681526020015b60405180910390f35b6100fb6100db36600461074a565b805160208183018101805160028252928201919093012091525460ff1681565b60405190151581526020016100c4565b6101136101a5565b005b6100b6600181565b6100b661012b366004610836565b60016020526000908152604090205460ff1681565b610113610285565b6000546040516001600160a01b0390911681526020016100c4565b6100b66102bb565b6000546100fb90600160a01b900460ff1681565b61011361018d3660046107fb565b610385565b6101136101a036600461071a565b61062f565b6000546001600160a01b031633146101d85760405162461bcd60e51b81526004016101cf90610869565b60405180910390fd5b600054600160a01b900460ff16156102325760405162461bcd60e51b815260206004820152601e60248201527f54686520656c656374696f6e2068617320656e64656420616c7265616479000060448201526064016101cf565b6000805460ff60a01b1916600160a01b1790557faacb23683ec1a0e9b52f9a6264edf58ad322ac62079d65ea7363a2d400f439f461026e6102bb565b60405160ff909116815260200160405180910390a1565b6000546001600160a01b031633146102af5760405162461bcd60e51b81526004016101cf90610869565b6102b960006106ca565b565b600160208190527fd9d16d34ffb15ba3a3d852f0d403e2ce1d691fb54de27ac87cd2f993f3ec330f5460009182527fcc69885fda6bcc1a4ace058b4a62bf5e179ea78fd58a1ccd71c22cc9b688792f5460ff9182169116111561031e5750600190565b60016020527fcc69885fda6bcc1a4ace058b4a62bf5e179ea78fd58a1ccd71c22cc9b688792f5460026000527fd9d16d34ffb15ba3a3d852f0d403e2ce1d691fb54de27ac87cd2f993f3ec330f5460ff9182169116111561037f5750600290565b50600090565b600054600160a01b900460ff16156103df5760405162461bcd60e51b815260206004820152601e60248201527f54686520656c656374696f6e2068617320656e64656420616c7265616479000060448201526064016101cf565b60006103f16080830160608401610836565b60ff16116104415760405162461bcd60e51b815260206004820181905260248201527f537461746573206d7573742068617665206174206c656173742031207365617460448201526064016101cf565b8060400135816020013514156104915760405162461bcd60e51b815260206004820152601560248201527454686572652063616e6e6f7420626520612074696560581b60448201526064016101cf565b600261049d828061089e565b6040516104ab929190610859565b9081526040519081900360200190205460ff161561051c5760405162461bcd60e51b815260206004820152602860248201527f5468697320737461746520726573756c742077617320616c7265616479207375604482015267626d69747465642160c01b60648201526084016101cf565b60008160400135826020013511156105365750600161053a565b5060025b61054a6080830160608401610836565b60ff80831660009081526001602052604081208054909261056d918591166108ec565b92506101000a81548160ff021916908360ff16021790555060016002838060000190610599919061089e565b6040516105a7929190610859565b908152604051908190036020019020805491151560ff199092169190911790556105d1828061089e565b6040516105df929190610859565b6040519081900390206105f86080840160608501610836565b60ff168260ff167fa2e71fe38f1afa3762cf9d2ea7bb6a4d272a90fd6f9392f3acedd3b542046b4660405160405180910390a45050565b6000546001600160a01b031633146106595760405162461bcd60e51b81526004016101cf90610869565b6001600160a01b0381166106be5760405162461bcd60e51b815260206004820152602660248201527f4f776e61626c653a206e6577206f776e657220697320746865207a65726f206160448201526564647265737360d01b60648201526084016101cf565b6106c7816106ca565b50565b600080546001600160a01b038381166001600160a01b0319831681178455604051919092169283917f8be0079c531659141344cd1fd0a4f28419497f9722a3daafe3b4186f6b6457e09190a35050565b60006020828403121561072c57600080fd5b81356001600160a01b038116811461074357600080fd5b9392505050565b60006020828403121561075c57600080fd5b813567ffffffffffffffff8082111561077457600080fd5b818401915084601f83011261078857600080fd5b81358181111561079a5761079a61091f565b604051601f8201601f19908116603f011681019083821181831017156107c2576107c261091f565b816040528281528760208487010111156107db57600080fd5b826020860160208301376000928101602001929092525095945050505050565b60006020828403121561080d57600080fd5b813567ffffffffffffffff81111561082457600080fd5b82016080818503121561074357600080fd5b60006020828403121561084857600080fd5b813560ff8116811461074357600080fd5b8183823760009101908152919050565b6020808252818101527f4f776e61626c653a2063616c6c6572206973206e6f7420746865206f776e6572604082015260600190565b6000808335601e198436030181126108b557600080fd5b83018035915067ffffffffffffffff8211156108d057600080fd5b6020019150368190038213156108e557600080fd5b9250929050565b600060ff821660ff84168060ff0382111561091757634e487b7160e01b600052601160045260246000fd5b019392505050565b634e487b7160e01b600052604160045260246000fdfea2646970667358221220aca002f0a65c39c49e14f08ca846f91510029f71b74c75b906f2ab5a7ca38f7d64736f6c63430008060033",
  "linkReferences": {},
  "deployedLinkReferences": {}
}